:020000040800F2
:1000000000500020CD07000815050008170500085E
:10001000190500081B0500081D0500080000000068
:100020000000000000000000000000001F050008A4
:100030002105000800000000230500082505000830
:10004000150800081508000815080008150800081C
:10005000150800081508000815080008150800080C
:1000600015080008150800081508000815080008FC
:1000700015080008290500081508000815080008DB
:1000800035050008150800081508000815080008BF
:1000900015080008150800081508000815080008CC
:1000A00015080008150800081508000815080008BC
:1000B0004105000815080008150800081508000883
:1000C000150800081508000815080008150800089C
:1000D00015080008150800084D0500085905000816
:1000E00015080008150800081508000800000000A1
:1000F0000000000000000000000000000000000000
:0C01000000000000000000005FF808F1A3
:10010C0010B5054C237833B9044B13B10448AFF345
:10011C0000800123237010BD14000020000000009B
:10012C00CC1D000808B5034B1BB103490348AFF3C2
:10013C00008008BD0000000018000020CC1D000845
:10014C000E4B07B55A690D2042F001025A6100228C
:10015C005B69114603F001030193019B00F0B0FBB6
:10016C000D2000F0DDFB00221020114600F0A8FB52
:10017C00102003B05DF804EB00F0D2BB001002407D
:10018C0010222DE9F04188B00DEB0200002101F0A6
:10019C00DCFD254BDFF894809A69254D42F0100266
:1001AC009A619A69404602F010020092009A9A698C
:1001BC004FF4005142F020029A619A69012402F036
:1001CC0020020192019A9A69002742F004029A6176
:1001DC009A69022602F004020292029A9A6942F08B
:1001EC0008029A619B69002203F008030393039BA6
:1001FC0000F0F8FD00222846012100F0F3FD4FF439
:10020C000053404604A9CDE90434CDE9067600F04C
:10021C0011FD284604A9CDE90444CDE9067600F089
:10022C0009FD08B0BDE8F08100100240001001404B
:10023C000008014030B50468C4F18005052D09DDC6
:10024C0022449178142901D0002030BD527901202C
:10025C001A60FAE7F8D07A3C022C0C60F4D00368F0
:10026C001A44D078A0F11403584258414000ECE7EE
:10027C0010B590B01422002108A801F066FD1422DC
:10028C00002101A801F061FD02244FF4803301220A
:10029C00CDE90D43CDE906234FF4E01306A80A92ED
:1002AC000F9300F0A5FD08B172B6FEE70F23CDE960
:1002BC0001344FF480630390CDE90430214601A84A
:1002CC0000F058FF08B172B6FEE710B010BD000088
:1002DC0008B500F0BFFAFFF7CBFFFFF751FFFFF7B0
:1002EC002FFF00F03BF900F089F900F0A3F9802210
:1002FC000C490D4801F018FD80220C490C4801F006
:10030C0013FD0C4800F0F2FF064D074C29468022E5
:10031C00204601F009FD80220449054801F004FD46
:10032C00F4E700BFC8010020600300204801002052
:10033C0018030020480200202DE9F0471646002241
:10034C0004460D4698469146089F3368012B2BD8DE
:10035C000023D4F800A0BAF17F0F06DD7C2A01DD62
:10036C0000223A60002BF0D01AE018F80A30C82BA3
:10037C0018D13B46424629462046DDF824C0C4F835
:10038C0000A0E04701283060C4F8009006D1C5F801
:10039C000090002201230AF1010ADCE70228F8D1BF
:1003AC00BDE8F0870132F5E7022BCED12B68434430
:1003BC0013F8013C3B602B682360C6F80090C4E73F
:1003CC00034607B51748834216D1802216491748B1
:1003DC0001F0AAFC80221649164801F0E3FC164BEA
:1003EC00164A0193164B174900931748114BFFF708
:1003FC00A3FF03B05DF804FB0C4A9342F9D18022B1
:10040C000B4901F091FC80220749104801F0CAFC0D
:10041C00094B0F4A01930F4B0F4900930F480B4B9D
:10042C00E5E700BF6003002048010020180300200E
:10043C00C8010020C8000020410200083400002040
:10044C00040000203C000020440000204800002054
:10045C003000002000000020380000204000002068
:10046C0008B5134B1A68134B1B68D11A0029B8BF77
:10047C004942052903DD3B2A02DD3B2B02DD08BD89
:10048C009A420CDD01220C48114600F0ABFC012213
:10049C00BDE808404FF40051084800F0A3BCEEDA68
:1004AC0000220121044800F09DFC0022F0E700BF6F
:1004BC000400002000000020000801400010014052
:1004CC0072B6FEE70E4B82B09A6942F001029A6155
:1004DC009A6902F001020092009ADA6942F08052A5
:1004EC00DA61DB69074A03F080530193019B53687F
:1004FC0023F0E06343F00073536002B0704700BF19
:10050C000010024000000140FEE7FEE7FEE7FEE7B8
:10051C00FEE770477047704700F0AEB9014800F035
:10052C00F5BA00BF90020020014800F0EFBA00BFFE
:10053C00D4020020014800F007BF00BF4802002091
:10054C00014801F05BBA00BF60030020014801F0D4
:10055C0055BA00BF18030020704700007FB5102269
:10056C00002102A801F0F1FB00234FF08042134858
:10057C00CDE90033C0E900234FF6FF728360C0E978
:10058C000323836100F0B4FF08B1FFF799FF4FF428
:10059C0080530A4802A9029300F0E0FF08B1FFF76C
:1005AC008FFF002369460548CDE9003301F070F850
:1005BC0008B1FFF785FF07B05DF804FB4802002087
:1005CC00036807B5B3F1804F15D103F50433DA692D
:1005DC001C2042F00102DA610022DB69114603F0B3
:1005EC0001030193019B00F06BF91C2003B05DF833
:1005FC0004EB00F095B903B05DF804FB08B50A48AC
:10060C000A4A0B4BC0E9002300230C22C0E9023339
:10061C00C0E905230361C36101F0D2F818B1BDE84C
:10062C000840FFF74DBF08BD6003002000440040A8
:10063C00A068060008B50A480A4A0B4BC0E900231B
:10064C0000230C22C0E90233C0E905230361C36116
:10065C0001F0B6F818B1BDE80840FFF731BF08BD8E
:10066C001803002000480040A0680600102270B556
:10067C00054688B00DEB0200002101F066FB2B68EB
:10068C00464A934243D1464B0421DA69454842F429
:10069C000032DA61DA69002602F400320092009A24
:1006AC009A69414C42F004029A619B6903F004037D
:1006BC000193019B0223CDE90413032304A907939F
:1006CC0000F0B8FA0823374804A9CDE90436069699
:1006DC0000F0B0FA354B2046C4E900368023C4E95B
:1006EC0003362023A660C4E90636666100F03AF9A9
:1006FC0008B1FFF7E5FE002226201146EC63656287
:10070C0000F0DEF8262000F00BF908B070BD284A86
:10071C009342FAD1224B2748DA6904A942F4802289
:10072C00DA61DA69002602F480220292029A9A694E
:10073C00214C42F008029A619B694FF4806203F0ED
:10074C0008030393039B0223CDE90423032307939C
:10075C0000F070FA4FF40063164804A9CDE9043692
:10076C00069600F067FA154B2046C4E90036802344
:10077C00C4E903362023A660C4E90636666100F09E
:10078C00F1F808B1FFF79CFE002227201146EC631C
:10079C00656200F095F82720B5E700BF00440040E3
:1007AC000010024000080140D40200206C000240FE
:1007BC0000480040000C0140900200203000024034
:1007CC00FFF7CAFE0B480C490C4A002302E0D45830
:1007DC00C4500433C4188C42F9D3094A094C002381
:1007EC0001E013600432A242FBD301F0B7FAFFF729
:1007FC006FFD70470000002014000020181E000838
:10080C0014000020AC030020FEE7000038B50E4BAE
:10081C0005461A784FF47A73B3FBF2F30B4A10685F
:10082C00B0FBF3F000F08AF8044658B90F2D09D844
:10083C00024629464FF0FF3000F042F82046044BA8
:10084C001D6038BD0120FCE70C00002008000020D2
:10085C0010000020074A08B51368032043F010036A
:10086C00136000F01BF80F20FFF7D0FFFFF72AFEF4
:10087C00002008BD00200240034A044B11681B787D
:10088C000B441360704700BFA80300200C0000202D
:10089C00014B1868704700BFA803002007490302EA
:1008AC00CA6803F4E06322F4E0621204120C1343EE
:1008BC0043F0BF6343F40033CB60704700ED00E0BE
:1008CC00154B30B5DC68C4F30224C4F10703251DB5
:1008DC00042B28BF0423062D4FF0FF3594BF0024B2
:1008EC00033C05FA03F321EA0303A54022EA0502BF
:1008FC00A340002843EA0203ACBF00F16040074A62
:10090C004FEA0313DBB2ABBF00F5614000F00F0000
:10091C0080F80033135430BD00ED00E014ED00E01E
:10092C00002807DB01234109034A00F01F00834024
:10093C0042F82130704700BF00E100E00138B0F10F
:10094C00807F0BD24FF0E023F021054A586182F8EA
:10095C0023100020072298611A617047012070470C
:10096C0000ED00E0034610B540B314210068144AB2
:10097C000244B2FBF1F292001A64124ADA630222C8
:10098C0083F82120D3E901242243DC680168224347
:10099C001C6921F47F5122435C6921F03001224310
:1009AC009C692243DC6922430A4302600020012235
:1009BC00986383F8200083F8212010BD0120FCE708
:1009CC00F8FFFDBF00000240F0B590F82040012C6C
:1009DC0034D0012480F8204090F82140012CE5B25D
:1009EC004FF0000428D1022680F82160846304684B
:1009FC00266826F001062660D0E90F67BD407560B9
:100A0C0063604368102BC36A0BBFA260A160E160F6
:100A1C00E2604BB1236843F00E030020236023688F
:100A2C0043F001032360F0BD236823F0040323602B
:100A3C00236843F00A03F0E780F820400220F2E735
:100A4C0090F821200346022A06D00422826301205A
:100A5C00002283F8202070470268C06B116821F0D7
:100A6C000E011160116821F00101116001211A6C55
:100A7C0001FA02F24260002083F82110E8E700003E
:100A8C0008B590F82130022B03D004238363012096
:100A9C0008BD03681A6822F00E021A601A6822F068
:100AAC0001021A60174A93421FD0143293421ED08F
:100ABC00143293421DD0143293421DD014329342FF
:100ACC001DD01432934214BF4FF080734FF4801337
:100ADC000D4A5360012380F82130002380F8203028
:100AEC00436B03B198470020D2E70123F0E71023B2
:100AFC00EEE74FF48073EBE74FF48053E8E74FF4E5
:100B0C008033E5E7080002400000024070B4042581
:100B1C00C66B026C3468036895402542196832D064
:100B2C004D0730D51A6896065EBF1A6822F004028B
:100B3C001A603E4A934219D01432934218D01432A0
:100B4C00934217D01432934217D01432934217D0D9
:100B5C001432934214BF4FF080634FF48003344A35
:100B6C005360C36A002B5ED070BC18470423F6E7B1
:100B7C004023F4E74FF48063F1E74FF48043EEE752
:100B8C004FF48023EBE702259540254235D08D07A5
:100B9C0033D51A68940606D41A6822F00A021A6031
:100BAC00012280F82120214A934219D01432934219
:100BBC0018D01432934217D01432934217D01432F7
:100BCC00934217D01432934214BF4FF000734FF47A
:100BDC000013174A5360002380F82030836AC1E762
:100BEC000223F6E72023F4E74FF40073F1E74FF408
:100BFC000053EEE74FF40033EBE708259540254210
:100C0C0011D009070FD5196821F00E0119600123C5
:100C1C0003FA02F27260836380F82130002380F8BB
:100C2C002030036B9EE770BC704700BF0800024089
:100C3C00000002402DE9F74F00242646DFF888C15A
:100C4C00624BDFF88CE1DFF88C810A6832FA06F52A
:100C5C0002D103B0BDE8F08F0127B74002EA0705C7
:100C6C0037EA02027AD14A68032A07D8013A022AE3
:100C7C0000F28380DFE802F092979D00122A00F0C8
:100C8C0095806DD8112A00F08B80FF2D98BF81467E
:100C9C004FF00F0B88BF00F104094FEA8602D9F818
:100CAC00007088BF203A0BFA02FA27EA0A0704FA06
:100CBC0002F21743C9F80070D1F8049019F0805F64
:100CCC004CD0DCF8182026F0030742F00102CCF8D7
:100CDC001820DCF8182007F1804702F0010201927D
:100CEC0007F5803706F0030A019A4FEA8A0ABA68B8
:100CFC000BFA0AFB22EA0B0B374A90425DD002F545
:100D0C00806290425BD002F58062904259D002F52D
:100D1C008062904214BF0422032202FA0AF242EAD1
:100D2C000B02BA609A6819F4801F14BF2A43AA43B5
:100D3C009A60DA6819F4001F14BF2A43AA43DA60D8
:100D4C005A6819F4003F14BF2A43AA435A601A6820
:100D5C0019F4803F14BF2A43AA431A60013674E782
:100D6C00DFF878904A4508D010D8A9F580194A4583
:100D7C0003D0724501D0424587D18A68DAB1012A85
:100D8C004FF008040CBF076147617EE7DFF8509015
:100D9C004A45F2D009F580394A45EDE7CC6874E74D
:100DAC00CC68043471E7CC6808346EE7CC680C343A
:100DBC006BE7002469E7042467E70022ADE7012212
:100DCC00ABE70222A9E700BF00100240000401407B
:100DDC00000021100000111000080140000022103A
:100DEC00000031100AB1016170470904FBE70000F3
:100DFC002DE9F341054638B30368DB0710D42B68A3
:100E0C009F075ED42B68190700F195802B685A0751
:100E1C0000F1C180EB69002B40F02C81002029E00F
:100E2C00904C636803F00C03042B07D0636803F049
:100E3C000C03082B0AD16368DE0307D523689C03D7
:100E4C00DDD56B68002BDAD1012013E06B68B3F5AC
:100E5C00803F12D1236843F480332360FFF718FDE1
:100E6C00064623689803CAD4FFF712FD801B64283A
:100E7C00F7D9032002B0BDE8F0819BB9236823F4B5
:100E8C0080332360236823F480232360FFF700FD65
:100E9C00064623689903B2D5FFF7FAFC801B642839
:100EAC00F7D9E6E7B3F5A02F236803D143F48023E9
:100EBC002360CFE723F480332360236823F480235B
:100ECC00CBE7684C636813F00C0F07D0636803F032
:100EDC000C03082B10D16368DA030DD423689B072D
:100EEC0002D52B69012BAFD123686A6923F0F80373
:100EFC0043EAC203236085E72A695B4B6AB101228E
:100F0C001A60FFF7C5FC064623689F07ECD4FFF771
:100F1C00BFFC801B0228F7D9ABE71A60FFF7B8FCBF
:100F2C000646236898077FF56DAFFFF7B1FC801B71
:100F3C000228F6D99DE7AA694A4E4B4BE2B1012231
:100F4C00C3F88024FFF7A4FC0446736A9B070DD5F5
:100F5C004FF4FA52454B1B68B3FBF2F3019300BFFD
:100F6C00019B5A1E0192002BF9D14FE7FFF790FC21
:100F7C00001B0228E9D97CE7C3F88024FFF788FC22
:100F8C000446736A9F077FF541AFFFF781FC001B96
:100F9C000228F6D96DE7334CE369D80024D4012735
:100FAC00E36943F08053E361E36903F080530093FA
:100FBC00009B2F4E3368D90518D5EB68012B26D131
:100FCC00236A43F001032362FFF762FC41F2883885
:100FDC000646236A9B073FD5002F3FF41BAFE369FE
:100FEC0023F08053E36115E70027E2E7336843F40D
:100FFC0080733360FFF74CFC80463368DA05DCD431
:10100C00FFF746FCA0EB08006428F6D931E7ABB932
:10101C00236A41F2883823F001032362236A23F008
:10102C0004032362FFF734FC0646236A9807D3D5E2
:10103C00FFF72EFC801B4045F7D91AE7052B236AD6
:10104C0003D143F004032362BAE723F001032362C4
:10105C00236A23F00403B6E7FFF71AFC801B404514
:10106C00B7D906E7001002400000424208000020F9
:10107C00007000402A4C626802F00C02082A3ED034
:10108C000022022B274B1A662CD1FFF701FC0646D7
:10109C002368990120D42B6AB3F5803F05D162688F
:1010AC00A96822F400320A436260696A62680B43E1
:1010BC0022F474121343012263601A4B1A66FFF771
:1010CC00E7FB054623689A013FF5A8AEFFF7E0FB66
:1010DC00401B0228F6D9CCE6FFF7DAFB801B02286E
:1010EC00D6D9C6E6FFF7D4FB054623689B017FF5EE
:1010FC0095AEFFF7CDFB401B0228F6D9B9E6012BC4
:10110C003FF4A2AE60682B6A00F480329A427FF4FE
:10111C009BAE6B6A00F47010C01A18BF0120A9E6D0
:10112C0000100240000042420D4A536803F00C01CB
:10113C00082912D10B48C3F38341DB03405C09D56A
:10114C005368094AC3F340435043084AD35CB0FB8D
:10115C00F3F07047064B584370470348704700BF85
:10116C0000100240FE1D000800127A00FC1D000851
:10117C0000093D002DE9F0410D46044610B901204F
:10118C00BDE8F081444A136803F007038B4228D36F
:10119C0021688E0730D4CA0743D43F4A136803F042
:1011AC000703AB4265D822683C4D12F0040F6CD19A
:1011BC00130706D56B68226923F4605343EAC20314
:1011CC006B60FFF7B1FF6B68354AC3F30313D35C55
:1011DC00D840344B1860344B1868FFF717FB0020CD
:1011EC00CEE7136823F007030B431360136803F077
:1011FC0007038B42C3D1CBE7284B11F0040F1EBF62
:10120C005A6842F4E0625A60080742BF5A6842F4D6
:10121C0060525A605A68A06822F0F00202435A6089
:10122C00B9E762681D4E012A33681AD113F4003FE6
:10123C00A5D0736841F2883823F00303134373601D
:10124C00FFF726FB07467368626803F00C03B3EBE9
:10125C00820FA2D0FFF71CFBC01B4045F3D9032023
:10126C008EE7022A02D113F0007FE1E713F0020FA0
:10127C00DEE7136823F007032B431360136803F0B6
:10128C000703AB427FF47BAF8DE76B68E16823F417
:10129C00E0630B436B608BE70020024000100240C0
:1012AC00EC1D00080800002010000020044B054A2B
:1012BC005B68C3F30223D35C034A1068D8407047C1
:1012CC0000100240E41D000808000020044B054AF1
:1012DC005B68C3F3C223D35C034A1068D8407047E1
:1012EC0000100240E41D00080800002090F83D307A
:1012FC00012B20D1022380F83D300368DA6842F0DC
:10130C000102DA600D4A93420AD0B3F1804F07D044
:10131C00A2F59432934203D002F58062934204D139
:10132C009A6802F00702062A03D01A6842F00102FA
:10133C001A60002070470120704700BF002C01404C
:10134C007047704770477047036870B5DD681E6959
:10135C000446B1070DD5AA070BD56FF002021A612E
:10136C00012202779B699B0769D0FFF7EAFF0023F4
:10137C002377710710D56A070ED56FF00402236826
:10138C0020461A61022222779B6913F4407F5CD0BD
:10139C00FFF7D7FF0023237733070FD528070DD589
:1013AC006FF00802236820461A6104222277DB6959
:1013BC00990750D0FFF7C5FF00232377F20610D50D
:1013CC00EB060ED56FF01002236820461A61082236
:1013DC002277DB6913F4407F43D0FFF7B2FF002381
:1013EC002377F00708D5E90706D56FF001022368CB
:1013FC0020461A61FFF734F8320608D52B0606D5BD
:10140C006FF08002236820461A6100F070F97006B4
:10141C0008D5690606D56FF04002236820461A618C
:10142C00FFF791FFB20622D5AB0620D56FF0200254
:10143C0023682046BDE870401A6100F057B9FFF7E9
:10144C007FFF2046FFF77EFF91E7FFF779FF2046ED
:10145C00FFF778FF9EE7FFF773FF2046FFF772FF59
:10146C00AAE7FFF76DFF2046FFF76CFFB7E770BDEB
:10147C001E4A036890420AD0B0F1804F07D0A2F503
:10148C009432904203D002F58062904215D14A68A2
:10149C0023F070031343154A90420AD0B0F1804FE9
:1014AC0007D0A2F59432904203D002F580629042AC
:1014BC0003D1CA6823F4407313434A6923F08003B1
:1014CC00134303608B68C3620B688362074B9842BB
:1014DC0004BF0B690363012343610369DB0742BF4C
:1014EC00036923F001030361704700BF002C014026
:1014FC0010B5044630B390F83D3003F0FF021BB931
:10150C0080F83C20FFF75CF80223206884F83D301B
:10151C00211DFFF7ADFF0123002084F8463084F82D
:10152C003E3084F83F3084F8403084F8413084F801
:10153C00423084F8433084F8443084F8453084F8E1
:10154C003D3010BD0120FCE710B584680A4324F43B
:10155C007F4442EA03222243826010BD38B590F8E2
:10156C003C300446012B4FF0020000F08E8001222B
:10157C0084F83D00206884F83C20836823F47F4382
:10158C0023F0770383600B68602B4FD032D8402B4D
:10159C0064D016D8202B0DD00AD833F0100109D006
:1015AC00012384F83D30002384F83C30104638BDCC
:1015BC00302BF5D1826822F07002134343F00703FD
:1015CC0028E0502BECD14A68CD68016A036A21F0FF
:1015DC000A0123F00103036283690A4323F0F00339
:1015EC0043EA051383610262836823F0700343F0BE
:1015FC0057030FE0B3F5805F0DD0B3F5005F0CD04F
:10160C00702BCDD1CB68D1E90121FFF79DFF836809
:10161C0043F0770383600022C2E7CB68D1E9012154
:10162C00FFF792FF836843F48043F3E7036A026A8F
:10163C004D6822F01002C9680262826923F0A0038F
:10164C0022F4704243EA051342EA013282610362DA
:10165C00836823F0700343F06703DBE74A68CD68C7
:10166C00016A036A21F00A0123F001030362836912
:10167C000A4323F0F00343EA051383610262836893
:10168C0023F0700343F04703C4E702468EE70000E3
:10169C0030B590F83C300246012B4FF0020022D0BE
:1016AC00136882F83D005C680D6824F070042C43CC
:1016BC0098685C600C4CA3420AD0B3F1804F07D001
:1016CC00A4F59434A34203D004F58064A34204D15E
:1016DC00496820F08000014399600123002082F8C2
:1016EC003D3082F83C0030BD002C01407047704703
:1016FC00026802F10C0353E8003F23F490730C32A0
:10170C0042E8003102680029F2D102F1140353E8D7
:10171C00003F23F0010302F1140C4CE800310029C6
:10172C00F3D1036B012B0BD102F10C0353E8003FF7
:10173C0023F0100302F10C0C4CE800310029F3D11A
:10174C00202380F8423000230363704710B5044611
:10175C000368C1681A6922F440520A431A6182680C
:10176C000069D9680243606921F4B05121F00C0181
:10177C0002430A43DA605A69A16922F440720A43AF
:10178C005A610E4A934215D1FFF7A0FD192343432A
:10179C00626820689200B3FBF2F36422B3FBF2F1AF
:1017AC0002FB11331B013233B3FBF2F303EB0113D6
:1017BC00836010BDFFF77AFDE8E700BF00380140F9
:1017CC0010B5044648B390F8413003F0FF021BB942
:1017DC0080F84020FEF74AFF2423226884F8413029
:1017EC00D368204623F40053D360FFF7AFFF236880
:1017FC0000201A6922F490421A615A6922F02A02D6
:10180C005A61DA6842F40052DA602023606484F88A
:10181C00413084F84230606310BD0120FCE7704712
:10182C007047704708B5406A03685A6990F84110D0
:10183C00212912D1120610D50022C28403F10C0208
:10184C0052E8002F22F0C00203F10C0C4CE80021EE
:10185C000029F3D1202280F841205B6990F84220C6
:10186C00222A05D15B0603D50023C385FFF740FF71
:10187C00436C43F010034364FFF7D3FF08BD08B576
:10188C000023406AC385C384FFF7CBFF08BD7047B4
:10189C0008B50123406A4363036B012B04D1818D8E
:1018AC004908FFF7F4FF08BDFFF7BAFFFBE708B5DF
:1018BC0003461B68406A1B6813F0200337D1C385AD
:1018CC00026802F10C0353E8003F23F480730C32DE
:1018DC0042E8003103680029F2D103F1140252E806
:1018EC00002F22F0010203F1140C4CE80021002916
:1018FC00F3D103F1140252E8002F22F0400203F15D
:10190C00140C4CE800210029F3D1202280F842204D
:10191C00026B012A0BD103F10C0252E8002F22F0CA
:10192C00100203F10C0C4CE800210029F3D1002328
:10193C004363036B012B03D1818DFFF7A8FF08BD17
:10194C00FEF73EFDFBE790F8423007B5222B42D163
:10195C0081680268B1F5805F836A3FD10169002913
:10196C003FD15268C2F3080223F8022B8362C38D65
:10197C00013B9BB2C385002B2DD10268D16821F0AD
:10198C002001D160D16821F48071D160516921F0BE
:10199C0001015161202280F842204363026B012A2D
:1019AC00026828D1036302F10C0353E8003F23F0D3
:1019BC00100302F10C0C4CE800310029F3D1136830
:1019CC00DB0605D501911368019353680193019BC4
:1019DC00818DFFF75CFF03B05DF804FB39B9016939
:1019EC0029B95268D2B21A70836A0133BEE75268C1
:1019FC0002F07F02F7E7FEF7E3FCECE7036873B550
:101A0C001A6804461607D9685D6908D1960668D528
:101A1C008D0666D502B0BDE87040FFF794BF05F0A7
:101A2C00010001F4907505435BD0D60705D5CD05B3
:101A3C0042BF636C43F001036364530704D518B1D0
:101A4C00636C43F002036364960704D518B1636CAE
:101A5C0043F004036364150707D501F02003034327
:101A6C001EBF636C43F008036364636C002B32D0BD
:101A7C00920604D58B0602D52046FFF764FF266834
:101A8C0020467369626C03F0400302F0080253EACB
:101A9C00020522D0FFF72CFE73695E0618D522686A
:101AAC0002F1140353E8003F23F04003143242E8E0
:101ABC0000310029F3D1E06B50B1744B4363FEF756
:101ACC00DFFF40B1E06B436B02B0BDE870401847DC
:101ADC002046FFF7A6FE02B070BDFFF7A2FE6564BC
:101AEC00F9E7206B012840F09480D50640F19180F5
:101AFC00C80640F18E80002201921A6801925A6841
:101B0C000192019A5A6952064DD5E16B0A685268E6
:101B1C0092B2002ADFD0A08D9042DCD9E2858A698E
:101B2C00202A36D003F10C0252E8002F22F48072E6
:101B3C0003F10C0040E800210029F3D103F1140259
:101B4C0052E8002F22F0010203F1140040E80021BA
:101B5C000029F3D103F1140252E8002F22F04002C5
:101B6C0003F1140040E800210029F3D1202284F86D
:101B7C004220216303F10C0252E8002F22F01002E4
:101B8C0003F10C0040E800210029F3D1E06BFEF7D3
:101B9C0057FF02236363E38DA18DC91A89B22046D6
:101BAC00FFF775FE97E7E28DE08DA18D80B292B2C2
:101BBC00002890D0891A89B200298CD003F10C022C
:101BCC0052E8002F22F4907203F10C0545E8002036
:101BDC000028F3D103F1140252E8002F22F0010285
:101BEC0003F1140545E800200028F3D1202284F8E5
:101BFC004220206303F10C0252E8002F22F0100265
:101C0C0003F10C0545E800200028F3D1022363639F
:101C1C00C5E7160628D50D0626D594F84120212AAD
:101C2C007FF459AFA168226AB1F5805F17D12169A1
:101C3C00A9B932F8021BC1F3080159602262E28C87
:101C4C00013A92B2E284002A7FF445AFDA6822F0BE
:101C5C008002DA60DA6842F04002DA603BE7511C3D
:101C6C00216212785A60EAE750067FF534AF4A06D3
:101C7C007FF531AFDA68204622F04002DA6020238B
:101C8C0084F84130FFF7CBFD25E700BF8B18000827
:101C9C0073B5134682850025222204468162456471
:101CAC0080F84220C06B1D4A266882621C4AC262C0
:101CBC001C4AC0E90C250A46311DFEF785FE236837
:101CCC0001951A6801925A680192019A22695AB1D7
:101CDC0003F10C0252E8002F42F4807203F10C0065
:101CEC0040E800210029F3D103F1140252E8002F3F
:101CFC0042F0010203F1140040E800210029F3D165
:101D0C0003F1140252E8002F42F0400203F11401D7
:101D1C0041E800200028F3D102B070BDBB180008C8
:101D2C009D1800083118000870B490F84260202EFD
:101D3C0006D141B13AB10024046370BCFFF7A8BFCF
:101D4C00022070BC70470120FBE70346024493421B
:101D5C0000D1704703F8011BF9E7000070B50026AD
:101D6C000C4D0D4C641BA410A64209D100F028F8B0
:101D7C0000260A4D0A4C641BA410A64205D170BD66
:101D8C0055F8043B98470136EEE755F8043B984765
:101D9C000136F2E7101E0008101E0008101E000885
:101DAC00141E00080A44914200F1FF3300D1704721
:101DBC0010B511F8014B914203F8014FF9D110BD48
:101DCC00F8B500BFF8BC08BC9E467047F8B500BF1C
:081DDC00F8BC08BC9E467047EC
:101DE40000000000010203040000000000000000E5
:101DF4000102030406070809010202030405060799
:0C1E040008090A0B0C0D0E0F1010000056
:041E10003101000894
:041E14000D010008B4
:101E1800320000006400000000127A000100000097
:041E280010000000A6
:04000005080007CD1B
:00000001FF
